:020000020000FC
:1000000001E0202E08E0302E07E0402E01E0502EC7
:100010000FE712E001BB02BB17BB48BB0F931F9356
:100020002F93EF93FF9310E01093600053D018BB11
:1000300002BB0F911F912F91EF91FF910F931F938F
:100040002F93EF93FF9311E01093600043D018BB00
:1000500002BB0F911F912F91EF91FF910F931F936F
:100060002F93EF93FF9312E01093600033D018BBEF
:1000700002BB0F911F912F91EF91FF910F931F934F
:100080002F93EF93FF9313E01093600023D018BBDE
:1000900002BB0F911F912F91EF91FF910F931F932F
:1000A00001E010E01F930F933AD01F910F911F9121
:1000B0000F91B4CF022D009361001AC0032D00935D
:1000C000610016C0042D0093610012C0052D00933D
:1000D00061000EC020E010916000121759F32395C3
:1000E000121761F32395121769F32395121771F311
:1000F000000009D0E0E0F1E010916000E10F149100
:10010000020408100895E2E1F1E000916100E00FBF
:1001100004913F065B4F666D7D077F6F08951F93C7
:100120000F930BD00F911F910A95C9F713951A954C
:1001300019F00FEF1A95F3CF089511E01F9301E71F
:100140000F93000000000F910A950F93D1F70F91C4
:100150001F911A951F930F93A1F70F911F91089567
:00000001FF
