:020000020000FC
:1000000001E0202E01E0302E01E0402E00E0502ED5
:100010000FE712E0442701BB02BB17BB00E007D08B
:1000200001E005D002E003D003E001D0F7CF102FAC
:100030000CD011FD022D12FD032D13FD042D14FD16
:10004000052D0AD002BB18BB0895E4E5F0E0E10FEE
:100050001491089502040810E2E6F0E0E00F049124
:1000600008953F065B4F666D7D077F6F8F939F936B
:10007000802F912F009721F006D0019709F0FCCF37
:100080009F918F9108958F939F9384E395E0000053
:0C009000019709F0FCCF9F918F9108951B
:00000001FF
