:020000020000FC
:1000000000E0202E01E0302E02E0402E03E0502ED2
:100010000FE712E0442701BB02BB17BB0F931F93EE
:1000200010E05DD011FD022D12FD032D13FD042DF6
:1000300014FD052D5BD002BB18BB1F910F910F93D0
:100040001F9301E010E05CD01F910F910F931F935D
:1000500011E045D011FD022D12FD032D13FD042DDD
:1000600014FD052D43D002BB18BB1F910F910F93B8
:100070001F9301E010E044D01F910F910F931F9345
:1000800012E02DD011FD022D12FD032D13FD042DC4
:1000900014FD052D2BD002BB18BB1F910F910F93A0
:1000A0001F9301E010E02CD01F910F910F931F932D
:1000B00013E015D011FD022D12FD032D13FD042DAB
:1000C00014FD052D13D002BB18BB1F910F910F9388
:1000D0001F9301E010E014D01F910F919FCFE8EE25
:1000E000F0E0E10F1491089502040810E6EFF0E04B
:1000F000E00F049108953F065B4F666D7D077F6FAB
:100100008F939F93802F912F009721F006D0019716
:1001100009F0FCCF9F918F9108958F939F9384E373
:1001200095E00000019709F0FCCF9F918F91089511
:00000001FF
