:020000020000FC
:020000000EC030
:1000080000C00F9398D00394002700160F9109F0B1
:1000180018951394189578940CE00EBD0AE70BBD5B
:1000280002E10ABD00E409BF00270CBD0DBD202E6A
:10003800302E402E502E0FE712E001BB02BB17BB3B
:1000480000240DEF002E11248FE097E20816190600
:10005800C9F30F931F93EF93FF9310E098D011FD0E
:10006800022D12FD032D13FD042D14FD052D96D030
:1000780002BB18BBFF91EF911F910F910F931F9334
:1000880001E010E095D01F910F910F931F93EF930C
:10009800FF9311E07CD011FD022D12FD032D13FDFD
:1000A800042D14FD052D7AD002BB18BBFF91EF91EA
:1000B8001F910F910F931F9301E010E079D01F91CA
:1000C8000F910F931F93EF93FF9312E060D011FDF0
:1000D800022D12FD032D13FD042D14FD052D5ED0F8
:1000E80002BB18BBFF91EF911F910F910F931F93C4
:1000F80001E010E05DD01F910F910F931F93EF93D4
:10010800FF9313E044D011FD022D12FD032D13FDC2
:10011800042D14FD052D42D002BB18BBFF91EF91B1
:100128001F910F910F931F9301E010E041D01F9191
:100138000F918ACF1895AF93BF93CF93DF93A02DDC
:10014800B12DD3E0C8EE12D02C2EC4E6D0E00ED0EC
:100158003C2ECAE0D0E00AD04C2EC1E0D0E006D058
:100168005C2EDF91CF91BF91AF9108959F938F93AC
:1001780088279927AC17BD0728F00196AC1BBD0B43
:1001880009F0F8CFC82FD92F8F919F910895E0EAF1
:10019800F1E0E10F1491089502040810EEEAF1E08D
:1001A800E00F049108953F065B4F666D7D077F6FF2
:1001B8008F939F93802F912F009721F006D001975E
:1001C80009F0FCCF9F918F9108958F939F9384E3BB
:1001D80095E00000019709F0FCCF9F918F91089559
:00000001FF
