:020000020000FC
:0200000014C02A
:0200080007C02F
:1000160001C01895039408161906A9F1B12DA02D53
:1000260036D018950CE00EBD0AE70BBD02E10ABDFD
:1000360000E00CBD0DBD00E409BF00E20BBF01E00E
:1000460000BD00E007BB0FEF08BB789400E0202E50
:1000560000E0302E00E0402E00E0502E0FE712E0C8
:1000660001BB02BB17BB48BB0AE08FEF90E0B0E0D4
:10007600A0E01B2E0A2E8FE097E23BD08FEF0812EE
:10008600FACF1394F8CF00241124F5CF1895D3E0B6
:10009600C8EE14D0262EB52FA42FC4E6D0E00ED07D
:1000A600362EB52FA42FCAE0D0E008D0462EB52FA5
:1000B600A42FC1E0D0E002D0562E0895000081E0C2
:1000C60090E04427552766277727AC17BD0760F0D1
:1000D6000000AC1BBD0B31F0680F791FAC17BD07D4
:1000E60018F0F6CF680F791F00004A2F5B2F00002B
:1000F600089500000F931F932F93EF93FF9313E040
:100106001093600074D018BB02BB0F911F912F9102
:10011600EF91FF910F931F9301E010E01F930F9350
:100126008BD01F910F911F910F910F931F932F93B8
:10013600EF93FF9312E01093600059D018BB02BBF7
:100146000F911F912F91EF91FF910F931F9301E054
:1001560010E01F930F9370D01F910F911F910F9175
:100166000F931F932F93EF93FF9311E0109360006B
:100176003ED018BB02BB0F911F912F91EF91FF91BB
:100186000F931F9301E010E01F930F9355D01F911B
:100196000F911F910F910F931F932F93EF93FF933F
:1001A60010E01093600023D018BB02BB0F911F9183
:1001B6002F91EF91FF910F931F9301E010E01F9392
:1001C6000F933AD01F910F911F910F910895022D11
:1001D600009361001AC0032D0093610016C0042D20
:1001E6000093610012C0052D009361000EC020E04F
:1001F60010916000121759F32395121761F3239596
:10020600121769F32395121771F3000009D0E0E283
:10021600F2E010916000E10F1491020408100895B5
:10022600E2E3F2E000916100E00F04913F065B4FCC
:10023600666D7D077F6F08951F930F930BD00F9107
:100246001F910A95C9F713951A9519F00FEF1A958C
:10025600F3CF089514E01F9306E70F930000000004
:100266000F910A950F93D1F70F911F911A951F932E
:0A0276000F93A1F70F911F91089557
:00000001FF
