:020000020000FC
:020000001AC024
:0200080007C02F
:1000160001C018950F931F932F932FB701E0112757
:100026009CD0000E111E2FBF2F911F910F91189576
:100036000CE00EBD0AE70BBD02E10ABD00E409BFF4
:1000460000270CBD0DBD00E20BBF01E000BD00277F
:10005600202E302E402E502E07BB0FEF08BB0FE789
:1000660012E001BB02BB17BB80E197E27894002443
:10007600112408161906DCF70F931F93EF93FF93CD
:1000860010E092D011FD022D12FD032D13FD042D5B
:1000960014FD052D90D00F931F9301E010E095D02D
:1000A6001F910F9102BB18BBFF91EF911F910F910A
:1000B6000F931F93EF93FF9311E076D011FD022D5E
:1000C60012FD032D13FD042D14FD052D74D00F9381
:1000D6001F9301E010E079D01F910F9102BB18BB6E
:1000E600FF91EF911F910F910F931F93EF93FF9342
:1000F60012E05AD011FD022D12FD032D13FD042D21
:1001060014FD052D58D00F931F9301E010E05DD02C
:100116001F910F9102BB18BBFF91EF911F910F9199
:100126000F931F93EF93FF9313E03ED011FD022D23
:1001360012FD032D13FD042D14FD052D3CD00F9348
:100146001F9301E010E041D01F910F9102BB18BB35
:10015600FF91EF911F910F918CCFAF93BF93CF93E8
:10016600DF93B12DA02DD3E0C8EE0DD02C2EC4E622
:100176000AD03C2ECAE007D04C2E5A2EDF91CF91E2
:10018600BF91AF9108959F938F9388279927AC17B6
:10019600BD0728F00196AC1BBD0B09F0F8CFC82FA0
:1001A600D92F8F919F910895E8EBF1E0E10F14911B
:1001B600089502040810E6ECF1E0E00F04910895BA
:1001C6003F065B4F666D7D077F6F8F939F93802FF2
:1001D600912F009721F006D0019709F0FCCF9F914F
:1001E6008F9108958F939F9384E395E00000019784
:0A01F60009F0FCCF9F918F9108954E
:00000001FF
