:020000020000FC
:1000000006E012E001BB02BB17BB18BB10936000F7
:100010000093610002E010E01F930F9313D0109142
:1000200060000091610048BB109360000093610084
:1000300002E010E01F930F9305D010916000009133
:100040006100E3CF1F930F9306D00F911F910A9584
:10005000C9F714C0089514E01F9301E70F9300003F
:1000600000000F910A950F93D1F70F911F911A95E8
:100070001F930F93A1F70F911F91089500001395FF
:0A0080001A9541F30FEF1A95DDCF3A
:00000001FF
