:020000020000FC
:100000000FE3202E06E0302E0BE5402E0FE4502E9D
:100010000FE712E0442701BB17BB02BB48BB12E04D
:1000200022BA18BB0F931F9301E010E024D01F9158
:100030000F9148BB14E032BA18BB0F931F9301E035
:1000400010E019D01F910F9148BB18E042BA18BBBD
:100050000F931F9301E010E00ED01F910F9148BB4A
:1000600010E152BA18BB0F931F9301E010E003D0C8
:100070001F910F91D3CF8F939F93802F912F009734
:1000800021F006D0019709F0FCCF9F918F91089540
:100090008F939F9384E395E00000019709F0FCCFD4
:0600A0009F918F9108956D
:00000001FF
