:020000020000FC
:0200000017C027
:1000080000C04FB773957170713039F0542F6FBFBE
:100018003F902F900F921F921895642F5FBF1F90EB
:100028000F902F923F921895789409E00EBD00E04A
:100038000BBD08EC0ABD00E409BF00270CBD0DBDCF
:10004800772704E3002E00E0002E0BE4202E00E0CA
:10005800302E0FE718E118BB01BB17BB0FE302BB3B
:10006800C49825E0A4E3BAEF0000119709F0FCCF8B
:100078002A952A13F7CFC49A25E0A4E3BAEF000023
:10008800119709F0FCCF2A952A13F7CFE9CFC39827
:100098001EE184E39AEF0000019709F0FCCF1A955E
:1000A8001813F7CFC39A1EE184E39AEF0000019773
:0E00B80009F0FCCF1A951813F7CFE9CF189571
:00000001FF
