:020000020000FC
:1000000000E0202E00E0302E00E0402E00E0502ED8
:100010000FE712E001BB02BB17BB48BB0AE00F931E
:100020001F932F93EF93FF9310E01093600084D001
:1000300018BB02BB0F911F912F91EF91FF910F936E
:100040001F930AE010E01F930F939BD01F910F9115
:100050001F910F910F931F932F93EF93FF9311E035
:100060001093600069D018BB02BB0F911F912F91B4
:10007000EF91FF910F931F930AE010E01F930F93EE
:1000800080D01F910F911F910F910F931F932F936A
:10009000EF93FF9312E0109360004ED018BB02BBA9
:1000A0000F911F912F91EF91FF910F931F930EE1ED
:1000B00010E01F930F9365D01F910F911F910F9127
:1000C0000F931F932F93EF93FF9313E01093600010
:1000D00033D018BB02BB0F911F912F91EF91FF916D
:1000E0000F931F9304E110E01F930F934AD01F91C9
:1000F0000F911F910F915394051191CF5524439463
:1001000004118DCF44243394031189CF33242394D5
:10011000031185CF222483CF022D009361001AC0E2
:10012000032D0093610016C0042D0093610012C0DE
:10013000052D009361000EC020E0109160001217A1
:1001400059F32395121761F32395121769F3239539
:10015000121771F3000009D0E4E6F1E0109160009D
:10016000E10F1491020408100895E6E7F1E0009110
:100170006100E00F04913F065B4F666D7D077F6F66
:1001800008951F930F930BD00F911F910A95C9F7F4
:1001900013951A9519F00FEF1A95F3CF089514E0FF
:1001A0001F9306E70F93000000000F910A950F932D
:1001B000D1F70F911F911A951F930F93A1F70F91EC
:0401C0001F910895EE
:00000001FF
