:020000020000FC
:100000000FE312E0442701BB17BB02BB48BB12E061
:1000100018BB0F931F9308EE13E021D01F910F918F
:1000200048BB14E018BB0F931F9308EE13E017D0E2
:100030001F910F9148BB18E018BB0F931F9308EE58
:1000400013E00DD01F910F9148BB10E118BB0F9327
:100050001F9308EE13E003D01F910F91D7CF8F931A
:100060009F93802F912F009721F006D0019709F0E0
:10007000FCCF9F918F9108958F939F9384E395E098
:0E0080000000019709F0FCCF9F918F91089529
:00000001FF
