:020000020000FC
:100000000FE312E001BB02BB17BB48BB12E018BBF9
:100010000F931F9301E010E01F930F932FD01F91B8
:100020000F911F910F9148BB14E018BB0F931F93C2
:1000300001E010E01F930F9321D01F910F911F91AA
:100040000F9148BB18E018BB0F931F9301E010E01D
:100050001F930F9313D01F910F911F910F9148BBC6
:1000600010E118BB0F931F9301E010E01F930F9353
:1000700005D01F910F911F910F91C7CF1F930F9321
:100080000BD00F911F910A95C9F713951A9519F086
:100090000FEF1A95F3CF089511E01F9301E70F9327
:1000A000000000000F910A950F93D1F70F911F9157
:0E00B0001A951F930F93A1F70F911F910895BA
:00000001FF
