:020000020000FC
:100000000FE712E0442701BB02BB17BB48BB12E05D
:100010000FE302BB18BB0F931F9305E010E027D03E
:100020001F910F9148BB06E014E002BB18BB0F9371
:100030001F9305E010E01BD01F910F9148BB0BE50B
:1000400018E002BB18BB0F931F9305E010E00FD020
:100050001F910F9148BB10E10FE402BB18BB0F9337
:100060001F9305E010E003D01F910F91CFCF8F9326
:100070009F93802F912F009721F006D0019709F0D0
:10008000FCCF9F918F9108958F939F9384E395E088
:0E0090000000019709F0FCCF9F918F91089519
:00000001FF
