:020000020000FC
:1000000000E0202E00E0302E00E0402E00E0502ED8
:100010000FE712E0442701BB02BB17BB8FE097E25A
:100020000024112408161906D9F3112D002D75D0BE
:100030000F931F93EF93FF9310E093D011FD022DC8
:1000400012FD032D13FD042D14FD052D91D002BBCF
:1000500018BBFF91EF911F910F910F931F9305E034
:1000600010E090D01F910F910F931F93EF93FF9388
:1000700011E077D011FD022D12FD032D13FD042D8B
:1000800014FD052D75D002BB18BBFF91EF911F9198
:100090000F910F931F9305E010E074D01F910F9103
:1000A0000F931F93EF93FF9312E05BD011FD022D8E
:1000B00012FD032D13FD042D14FD052D59D002BB97
:1000C00018BBFF91EF911F910F910F931F9305E0C4
:1000D00010E058D01F910F910F931F93EF93FF9350
:1000E00013E03FD011FD022D12FD032D13FD042D51
:1000F00014FD052D3DD002BB18BBFF91EF911F9160
:100100000F910F931F9305E010E03CD01F910F91CA
:100110000394001287CF139485CF33E028EE0ED0DE
:10012000222E24E630E00AD0322E2AE030E006D03B
:10013000422E21E030E002D0522E08959F938F93FB
:10014000882799270217130728F00196021B130B23
:1001500009F0F8CF282F392F002F112F8F919F9161
:100160000895ECE6F1E0E10F1491089502040810FF
:10017000EAE7F1E0E00F049108953F065B4F666DFA
:100180007D077F6F8F939F93802F912F009721F092
:1001900006D0019709F0FCCF9F918F9108958F931E
:1001A0009F9384E395E00000019709F0FCCF9F91B5
:0401B0008F9108958E
:00000001FF
