:020000020000FC
:100000000027202E302E402E502E0FE712E001BB8D
:1000100002BB17BB80E197E201E011270024112405
:1000200008161906DCF78FD00F931F93EF93FF93F9
:1000300010E0B0D011FD022D12FD032D13FD042D93
:1000400014FD052DAED00F931F9301E010E0B3D047
:100050001F910F9102BB18BBFF91EF911F910F9160
:100060000F931F9304E010E0A6D01F910F910F9300
:100070001F93EF93FF9311E08DD011FD022D12FD20
:10008000032D13FD042D14FD052D8BD00F931F930D
:1000900001E010E090D01F910F9102BB18BBFF91BF
:1000A000EF911F910F910F931F9304E010E083D005
:1000B0001F910F910F931F93EF93FF9312E06AD05C
:1000C00011FD022D12FD032D13FD042D14FD052D30
:1000D00068D00F931F9301E010E06DD01F910F9136
:1000E00002BB18BBFF91EF911F910F910F931F93CC
:1000F00004E010E060D01F910F910F931F93EF93D6
:10010000FF9313E047D011FD022D12FD032D13FDC7
:10011000042D14FD052D45D00F931F9301E010E031
:100120004AD01F910F9102BB18BBFF91EF911F9115
:100130000F910F931F9304E010E03DD01F910F919A
:10014000000E111E6DCFAF93BF93CF93DF93B12DF0
:10015000A02DD3E0C8EE0DD02C2EC4E60AD03C2E44
:10016000CAE007D04C2E5A2EDF91CF91BF91AF91AC
:1001700008959F938F9388279927AC17BD0728F080
:100180000196AC1BBD0B09F0F8CFC82FD92F8F916A
:100190009F910895EEE9F1E0E10F149108950204B2
:1001A0000810ECEAF1E0E00F049108953F065B4F80
:1001B000666D7D077F6F8F939F93802F912F0097A0
:1001C00021F006D0019709F0FCCF9F918F910895FF
:1001D0008F939F9384E395E00000019709F0FCCF93
:0601E0009F918F9108952C
:00000001FF
